:400000000010002011000000950400009504000010B500F047FAC04670B50F4C23688022D20213432360182000F07CFC22680B4B134023600A4A0B4B1A60063A0A4B1A606E
:40004000002525600949092000F038FC092000F029FC074B1D6070BD00010B40FFFFFBFF0600008004010B4008010B40350B00000C020B4010B572B601222D4B1A700024C0
:400080000FE02C486200131959000B00411889881A5AC31858880004104300F0CFF90134E4B2012CEDD923490C312348283000F0ABF9224A224B1A6099231B04214A136079
:4000C000214A1360214A1360214A136080225202204B1A607D22204B1A6001321F4B1A601F490B78423A934314221343DBB20B701C4A117816230B43DBB2137080221A4B92
:400100001A601A4A1A4B1A6006221A4B1A601A4A1A4B1A6001231A4A13601A491A4A11601A4A1360FFF778FF00F0AEF910BDC0461C700F40D01600005018000006EE0000BA
:400140000C00014000500F4010500F4020500F4030500F4038500F402000004000800F4001700F4000700F4000000440820140000800044008010440B66DDB0008020440E5
:4001800000030440806D1B00080304401803044010B5064C2378002B07D1054B002B02D0044800E000BF0123237010BD50010020000000004C100000084B10B5002B03D0EE
:4001C0000749084800E000BF07480368002B00D110BD064B002BFBD09847F9E700000000540100204C100000C00000200000000010B501220D4B1A6000220D4B1A6000F0E8
:4002000037FB00F007FD012000F01EFD002000F0B3FE0921012000F091FE064800F024FE00F0D2F900F036FA10BDC046A40100206C010020A416000010B51F4B1B68012BE9
:4002400025D11E4B1B68012B0FD11D494A681D48845C1D48046001324A60184949688A4203DB9021FF31164A5160022B1FD114498B68164AD218107C134A106001338B60B0
:400280000E4A9268934212DB114A8A600FE00C490B68104AD2184020105C0B4A106001330B60064AD268934201D100220A60064B186800F0B1FA10BDA4010020C40000201B
:4002C0006C01002050100000A8010020D0110000AF0400005016000010B500240C4B1C6000F08CF90B4B5C609C60002000F0ACFC012000F041FE012000F0C4FD00F084FCC5
:4003000000F0B0FA00F09AFC00F0C6FA10BDC046A40100206C01002010B50122044B1A60012000F035FE002000F03EFE10BDC046C400002010B50222044B1A60002000F00E
:4003400027FE012000F030FE10BDC046C400002010B562B600F0E2FD012000F093FD00F04BFA204800F0C8F91F4800F0F7F91F4C200000F083FA200000F052FC1C4800F0D6
:4003800091FC1C4800F0C0FC1B4B1B68012B14D1012000F0FDFD002000F006FE0021002000F0CCFD154800F05FFD0021012000F0C5FD134800F058FDE6E7002000F0E8FD8E
:4003C000012000F0F1FD0021002000F0B7FD0B4800F04AFD0021012000F0B0FD094800F043FDD1E739020000D9020000F10100001903000035030000C4000020AC16000075
:40040000C0160000C8160000F0B50025002711E0BB00C658F3B2FF22964308E06A008A181478A419527822700135013BDBB2002BF4D10137092FEBD9F0BDC04610B50A0070
:40044000002100F0FBFD10BD0C4B1B68002803D080221206134301E05B005B08074A1360074B1B68002803D080229204134301E0044A1340024A13607047C04680031A4025
:4004800008010B40FFFFFFFD10B50120FFF7DCFF10BDC04610B500F0A5FD03680C2B00D1FEE7FEE770B50F4E0F4D13E029686B68AC68002202E001C901C30432A242FAD110
:4004C000E868002202E0002102C304328242FAD11035013E002EE9D100F08AFDFFF738FFFEE7C04601000000F418000010B500230AE0032B03D89A000949505800E0094855
:400500009900094A885001332F2BF2D9FFF7B2FD8022D205116801230B43136010BDC046000000009504000000000020034A117880235B420B43DBB21370704772000F40AA
:40054000014B18707047C04683000F40014B1878C0B2704763000F40014B18807047C04644100F40014B188880B2704784100F40014B18807047C04604100F4010B501E0BB
:40058000FFF7F0FFFFF7E2FF0307F9D410BDC04610B50B4C2000FFF7DFFF2000FFF7E8FF00F018FD074A117810230B43DBB2137000F014FDFFF7E2FF0020FFF7C1FF10BDDD
:4005C000670A000093000F4010B5064B1B78002B04D1FFF7DDFF0122024B1A70FFF7A6FF10BDC04678010020034A117880235B420B43DBB21370704770000F40024A11786D
:400600007F230B401370704770000F40014B18707047C04681000F40014B1878C0B2704761000F40014B18807047C04640100F40014B188880B2704780100F40014B1880E6
:400640007047C04600100F4010B501E0FFF7F0FFFFF7E2FF0307F9D410BDC04610B50B4C2000FFF7DFFF2000FFF7E8FF00F0B2FC074A117810230B43DBB2137000F0AEFCA2
:40068000FFF7E2FF0020FFF7C1FF10BDFFF9000091000F4010B5064B1B78002B04D1FFF7DDFF0122024B1A70FFF79EFF10BDC04679010020014BD8647047C046000000200E
:4006C00010B5040000F086FC044A13689B009B08A4071C43146000F081FC10BD00E400E00822014B1A60704700E100E00822014B1A60704780E100E010B50400FFF7F6FF38
:400700002000FFF7D7FF0320FFF7DAFFFFF7E8FF10BDC046014B98657047C0460000002010B5040000F056FC044A1168044B0B40A4051C43146000F051FC10BD04E400E04B
:40074000FFFF3FFF4022014B1A60704700E100E04022014B1A60704780E100E010B50400FFF7F6FF2000FFF7D5FF0320FFF7D8FFFFF7E8FF10BDC04610B500F02BFC0E4C09
:4007800023680F22934319000C4B1B7813400B4323600B4A136813600A4B1C680A492140196011689024E400214311601A681A6000F014FC10BDC04600FF084060F1FF0FDC
:4007C0000800084004000840FFFFFEFF10B500F001FC074A1368C02189000B431360054A1368802109060B43136000F0F7FB10BD080008400400084010B5064B1B68002B6F
:4008000004D1FFF7B9FF0122024B1A60FFF7DEFF10BDC0467C01002010B5040000F0DAFB044A1368FF218B431C43146000F0D6FB10BDC04608000840014B18657047C04686
:400840000000002010B5040000F0C4FB044A1368C0218B43A4011C43146000F0BFFB10BD04E400E01022014B1A60704700E100E01022014B1A60704780E100E010B5040088
:40088000FFF7F6FF2000FFF7D7FF0320FFF7DAFFFFF7E8FF10BDC0461022014B1A60704780E200E01F2318401E3B8340014A13607047C04600E100E001BE704770B504003D
:4008C0000D001F2802D90020FFF7F6FF1034A40080239B059C4664442068256070BDC04610B5040006E0084B586800F069FB074B9C46644480231B029C42F4D8024B986820
:40090000604300F05DFB10BDD40000200080FFFF10B5034B1B7B584300F052FB10BDC046D4000020F0B557464E46C0B483B0040000F050FB0190E71E2D2F74D83F4B1B782E
:40094000DBB29C4208D83E4B1B78DBB29A463D4B1B78DBB2994631E03B4B1B78DBB29C4208D83A4B1B78DBB29A46394B1B78DBB2994623E0374B1B78DBB29C4208D8364BBB
:400980001B78DBB29A46354B1B78DBB2994615E0334B1B78DBB29C4208D8324B1B78DBB29A46314B1B78DBB2994607E02F4B1B78DBB29A462E4B1B78DBB299462D4BDE5DE3
:4009C0002F2E09D92A2C07D919222B4B1A60052000F0F6FA192503E0274B1D683F231D40B54206D9234BDA5D234B1A60052000F0E7FA1F4B9C4664442378DBB21F4A13602A
:400A00001F4B52461A601F4B4A461A600520FFF77FFFB5420AD2174BDA5D174B1A60052000F0CEFA02E00020FFF746FF019800F0D5FA03B00CBC91469A46F0BDC0F1FF0FD5
:400A4000C1F1FF0FC2F1FF0FC3F1FF0FC4F1FF0FC5F1FF0FC6F1FF0FC7F1FF0FC8F1FF0FC9F1FF0FCAF1FF0FCBF1FF0FCCF1FF0FCDF1FF0FA01800002CFF0B4028FF0B40C8
:400A80001CFF0B4020FF0B40034B1868C0231B02184000D00120704700010B4010B500F099FA044A1368C02109020B43136000F095FA10BD00010B4010B500F08BFA08496B
:400AC0000A68084B1A408024E40122430A600A6813408022120213430B6000F07FFA10BD00010B40FF3FFFFF70B5050000F072FA0400FFF7C9FF002803D0FFF7DDFF01214E
:400B000000E0002108482840084A1568084B2B40184310601368012901D1FFF7BFFF200000F05CFA70BDC0460404040010020B40FBFBFBFF10B5244B1B685B0715D5234B16
:400B40001B685B070ED5224BD969042001401F4C22688A432260DA698243DA611B69002B00D098470420FFF7BFFF174B1B685B0518D5164B1B685B0510D5154BD96980223D
:400B8000D2001140114802688A430260D969114A0A40DA615B69002B00D098478020C000FFF7A2FF084B1B685B030CD5074B1B685B0304D5064B9B69002B00D09847802079
:400BC000C002FFF791FF10BD10020B40E800002080010020FFFBFFFF014B58657047C0460000002010B5040000F0F4F9044A1168044B0B40A4031C43146000F0EFF910BDD6
:400C000004E400E0FF3FFFFF2022014B1A60704700E100E02022014B1A60704780E100E010B50400FFF7F6FF2000FFF7D5FF0320FFF7D8FFFFF7E8FF10BDC0462022014B64
:400C40001A60704780E200E004490A68D2B220239A434001184010430860704700030440014B18647047C0460000002010B5040000F0B0F9044A1368C0218B43A4011C43C9
:400C8000146000F0ABF910BD00E400E00122014B1A60704700E100E00122014B1A60704780E100E010B50400FFF7F6FF2000FFF7D7FF0320FFF7DAFFFFF7E8FF10BDC04617
:400CC000014B98647047C0460000002010B5040000F080F9044A1168044B0B40A4051C43146000F07BF910BD00E400E0FFFF3FFF0422014B1A60704700E100E00422014BB9
:400D00001A60704780E100E010B50400FFF7F6FF2000FFF7D5FF0320FFF7D8FFFFF7E8FF10BDC04610B50B4C226860239A4322602268513B9A432260226810230343D8B279
:400D4000104320600120FFF7E3FD236810229343236010BD0002044070B505000E4C226820231343236023684022934323600020FFF7CEFD23680F2293432360226810235D
:400D80002B43D8B2104320600120FFF7C1FD236810229343236070BD00020440F8B5274A13687F218B43136025490B681B0B1B03244803430B60136820218B4313601168D8
:400DC00040230B431360CA277F000020FFF7A0FD1A4C23681026334323600120FFF798FD194B1D682368B34323600020FFF790FD08231D402368334323600120FFF788FDA8
:400E00002368B3432360002D02D10A20FFF780FD013F002D01D0002FD7D1084B1A6840218A431A601A683F318A431A60044A13681B0B1B0305490B431360F8BD000204402F
:400E4000080204404902000004020440B60D000010B50400FFF7A2FF2009FFF77DFF0F202040FFF779FF10BD70B505000078012404E0FFF7EDFF285D0134E4B20028F8D139
:400E800070BDC04610B50400FFF788FF2009FFF749FF0F202040FFF745FF10BD10B52820FFF71EFD0320FFF73DFF0520FFF718FD0320FFF737FF0F20FFF712FD0320FFF77D
:400EC00031FF0120FFF70CFD0220FFF72BFF0520FFF706FD0620FFF7D5FF0E20FFF7D2FF2C20FFF7CFFF0820FFF7CCFF0120FFF7C9FF0C20FFF7C6FF0320FFF7C3FF05209E
:400F0000FFF7EEFC10BDC04610B50C20FFF7BAFF0122014B1A7010BDA001002010B5064B5B78002B04D1FFF7B9FF0122024B5A70FFF7EAFF10BDC046A001002010B50128A5
:400F40000BD0002804D002280CD003280FD012E08039C8B2FFF796FF0DE04039C8B2FFF791FF08E06C39C8B2FFF78CFF03E02C39C8B2FFF787FF10BD04490A68D2B2042377
:400F80009A43800018401043086070470000044004490A68D2B210239A430001184010430860704700030440044A1368DBB201218B430840184310607047C0460001044006
:400FC0000230800804D0C0460138FDD1C046C046C0467047EFF3108072B6704780F310887047C046014B18687047C0464C0100200E4B70B500251E000D4CE41AA410A542CB
:4010000004D0AB00F35898470135F8E700F060FC084B00251E00084CE41AA410A54204D0AB00F35898470135F8E770BDDC180000DC180000DC180000E418000003008218C3
:40104000934202D019700133FAE77047000000007FA6C7E1F1F5EDDCC1A17F5E412A1D1A202F46617F9CB5C8D3D6D1C4B0987F6651403634394455697F94A7B5BDC0BCB28E
:40108000A3927F6D5D5149474B53606F7F8F9CA7ADAFACA59A8D7F71665D5756585F68737F8B959DA1A2A09B93897F756C66626062676E767F888F95989998948E877F78AE
:4010C000716C69686A6D72787F858B8F9292918E8A857F7975716F6E6F72767A7F84888B8D8D8D8A87837F7B777573737375787B7F838688898A898785827F7C797776767C
:4011000076787A7C7F8284868787868583817F7D7B797878797A7B7D7F8183848585848482817F7D7C7B7A7A7A7B7C7E7F8082838383838281807F7E7D7C7B7B7B7C7D7EF8
:401140007F8081828282828281807F7E7D7D7C7C7C7D7D7E7F8080818181818180807F7E7E7D7D7D7D7D7E7E7F8080808181818080807F7F7E7E7E7D7E7E7E7F7F7F8080A7
:4011800080808080807F7F7F7E7E7E7E7E7E7E7F7F7F808080808080807F7F7F7E7E7E7E7E7E7F7F7F7F7F80808080807F7F7F7F7F7E7E7E7E7F7F7F7F7F7F7F80807F7F6D
:4011C0007F7F7F7F7F7F7F7F7F7F7F7F7F7F7F7F7F7F7F7F7F7F7F7F7F7F7F7F7F7F7F7F7FA6C9E4F5FBF4E2C7A57F5A391F0E0910213B5B7FA2C2DBEAEFE9D9C0A17F5D66
:401200003F2819141A2A415F7F9FBCD2E0E4DFD0BA9E7F614530231F243247627F9CB6CAD7DBD6C8B49B7F634B382C282C394C657F99B1C3CED2CEC2AF987F66503E343046
:40124000344051677F97ACBCC7CAC6BBAB967F6854453B383B4656697F94A8B7C0C3BFB5A6947F6B584A413E424B5A6B7F92A4B1BABDB9B0A3927F6D5C4F474448505D6D3F
:401280007F91A0ACB4B7B4AC9F907F6E5F544C4A4D55606F7F8F9DA8AFB1AFA79C8E7F706258514F525963707F8D9AA4ABADAAA3998D7F71655C5654565C66727F8C98A1F9
:4012C000A6A8A6A0978B7F73685F5A585A6068737F8B959DA3A4A29D958A7F746A625D5C5D636A747F8A939B9FA19F9A93897F756C65605F61656C757F8991989C9E9C97AC
:4013000091887F766E67636264686E767F888F96999B99958F877F776F6A6665666A70777F878E93979897938D877F78716C6867686C71787F868D91959694918C867F78F0
:40134000726D6A696B6E73787F858B909393928F8B857F79736F6C6C6D6F74797F858A8E9192918E8A857F7974716E6D6E71757A7F84898D8F908F8C89847F7A7572706FF4
:401380007072767A7F84888B8D8E8D8B88847F7A767371717173777B7F83878A8C8D8C8A87837F7B777473727375777B7F8386898B8B8B8986837F7B787574737476787B8D
:4013C0007F8386888A8A8A8886827F7C797675747576797C7F8285878989898785827F7C797776757677797C7F8284878888888684827F7C7A78777677787A7C7F82848614
:401400008787878684827F7D7A79777778797A7D7F8183858687868583817F7D7B79787878797B7D7F8183858686858483817F7D7B7A7979797A7B7D7F81838485858584D0
:4014400083817F7D7B7A7979797A7C7D7F8182848485848382817F7D7C7B7A7A7A7B7C7D7F8182838484848382817F7D7C7B7A7A7A7B7C7E7F8082838384838382807F7EAE
:401480007C7B7B7B7B7C7C7E7F8081828383838281807F7E7D7C7B7B7B7C7D7E7F8081828383838281807F7E7D7C7C7B7C7C7D7E7F8081828282828281807F7E7D7C7C7C7B
:4014C0007C7C7D7E7F8081828282828181807F7E7D7D7C7C7C7D7D7E7F8081818282828181807F7E7D7D7C7C7D7D7D7E7F8080818182818180807F7E7E7D7D7D7D7D7E7E32
:401500007F8080818181818180807F7E7E7D7D7D7D7D7E7E7F8080818181818180807F7E7E7D7D7D7D7D7E7E7F8080818181818080807F7E7E7E7D7D7D7E7E7E7F808080E7
:401540008181818080807F7E7E7E7D7D7D7E7E7F7F7F808080818080807F7F7F7E7E7E7E7E7E7E7F7F7F808080808080807F7F7F7E7E7E7E7E7E7E7F7F7F808080808080A6
:40158000807F7F7F7E7E7E7E7E7E7E7F7F7F808080808080807F7F7F7E7E7E7E7E7E7E7F7F7F808080808080807F7F7F7E7E7E7E7E7E7E7F7F7F808080808080807F7F7F6A
:4015C0007E7E7E7E7E7E7E7F7F7F7F80808080807F7F7F7F7F7E7E7E7E7E7F7F7F7F7F80808080807F7F7F7F7F7E7E7E7E7E7F7F7F7F7F80808080807F7F7F7F7F7E7E7E30
:401600007E7E7F7F7F7F7F808080807F7F7F7F7F7F7F7E7E7E7F7F7F7F7F7F7F8080807F7F7F7F7F7F7F7E7E7E7F7F7F7F7F7F7F7F807F7F7F7F7F7F7F7F7F7F7F7F7F7FEA
:401640007F7F7F7F7F7F7F7F7F7F7F7F7F7F7F7F7F7F7F7F7F7F7F7F7F7F7F7F7F7F7F7F7F7F7F7F7F7F7F7F7F7F7F7F7F7F7F7F7F7F7F7F7F7F7F7F7F7F7F7F7F7F7F7FAA
:401680007F7F7F7F7F7F7F7F7F7F7F7F7F7F7F7F80A7CBE7F9FFF9E7CBA7805935190701071935595374617274202000457870466164696E6750726F636573730000000097
:4016C0004D6F6420310000004D6F64203200000000300F40000400400F400004810D830D405449FF4AFF4BFF4F01501852805A0A5B0B5D995F016040624064406540668049
:4017000068806A806C806E8082019201B001B401BE01C054C5ECC602C807C9FFCAFFCBFFCD83CE03CF01D018D401D809DA09DB09DC09DD99DF01E040E240E440E540E68089
:40174000E880EA80EC80EE8006800C021E401F204280468048024C024D044F0156805D045E405F01700278057F048320C010C210D081D218D6D0DE23E201404549FF4AFF04
:401780004BFF4F015018528056085A045B045D995F016040624064406540668068806A806C806E8082018E01B001B201B820BE11C014C5ECC720C823C9FFCAFFCBFFCD83A8
:4017C000CE03CF01D018D401D804DA04DB04DC09DD99DF01E040E240E440E540E680E880EA80EC80EE800202034018041A602808292041014340468049054E0251015202F5
:4018000059055A405C405D2064056708768077408C4C962097089C05AA10C009D089D210D63BD830E040E21002100F0218026C047301751076107B818381C010C280C64017
:40184000DA80DCE0DE60E280E6208C0590029408A910EE200F0177088301C201DC02088056208C808E208F089F08C202D402E208E40202011101000002000F4034300F40F9
:4018800019310F4036320F4021330F4011400F4005410F4005420F400A430F4002600F40030405060708090A0B0C0E0F101112131415161718191B1C1D1E1F2021222325AC
:4018C000262728292A2B2E2F3031323334354300F8B5C046F8BC08BC9E467047B9010000ED040000F8B5C046F8BC08BC9E4670479101000008190000C000002090000000CC
:401900006000000000000000000000000100000090010000B004000014000000010000000000E02EC05D00001800000000366E0104040400000000000000000000000000F8
:401940000000000000000000000000000000000000000000CE1800000000000000000000000000000000000000000000000000000000000000000000000000000000000081
:401980000000000000000000000000000000000000000000EC000020000000000000000000000000000000000000000000000000000000000000000000000000000000001B
:4019C00000000000000000000000000000000000000000000000000000000000000000000000000000000000000000000000000000000000000000000000000000000000E7
:401A000000000000000000000000000000000000000000000000000000000000000000000000000000000000000000000000000000000000000000000000000000000000A6
:401A40000000000000000000000000000000000000000000000000000000000000000000000000000000000000000000000000000000000000000000000000000000000066
:401A80000000000000000000000000000000000000000000000000000000000000000000000000000000000000000000000000000000000000000000000000000000000026
:0200000490303A
:02000000061DDB
:0200000490402A
:200000000000000000000000000000000000000000000000000000000000000000000000E0
:0200000490501A
:0C000000000204C81193110104D217B0D3
:0200000490600A
:0100000001FE
:00000001FF